:10183700B4AEBFDAB3F5CABCBBAFCDEAB3C9006F6C
:101847006C6564B3F5CABCBBAFCDEAB3C9004C6FD6
:101857006164696E672E2E2E00BFAACABCB3F5CA93
:10186700BCBBAF5344BFA8005344310053446D6D14
:101877006300CAA7B0DC00534463617264206572D9
:10188700726F7200466174B3F5CABCBBAFBFAACA18
:10189700BC00466174B3F5CABCBBAFCDEAB3C9009F
:1018A700767331303033526573657400CBD1CBF723
:1018B700D2F4C0D6D6D000CBD1CBF7CDEAB3C92C62
:1018C700B8E8C7FACAC4BFCEAA3A0066696E6420F0
:1018D7000020736F6E67004E4F20736F6E6700BFF7
:1018E700AACABCB2A5B7C52E2E2E007761697400AF
:1022320041020DFE41020B0041020C004402030068
:0322420000000099
:1011B00075A01FE5A0541F641F70030213617F0A0E
:1011C0007E00122286E5A0541F640F706375A01F75
:1011D000E5A0B41FF890020CE0700990020BE01437
:1011E000A3F0800690020CE014F0122135E4900385
:1011F00061F0900361E0FFC39408503190020CE06D
:1012000075F010A4241FF582E5F03402F583E58221
:101210002FF582E43583F583E0FBEF75F008A4FF3A
:10122000E4FD121A5C900361E004F080C502132013
:10123000E5A0541FFFBF171975A01FE5A0B41FF844
:101240003095FD90020DE064FE605AE0240AF080C3
:1012500054E5A0541F641B70307F64FE1222867513
:10126000A01FE5A0B41FF87F647E0012228675A03F
:101270001FE5A0541FFFBF1BF57F647E001222866E
:1012800075A01FE5A0B41FF822E5A0541FFFBF1DE5
:101290001775A01FE5A0B41FF83095FD90020DE072
:1012A000600324F6F0022214E5A0541F641E6003BC
:1012B00002136175A01FE5A0B41FF890020CE02492
:1012C00001FFE433FE90020BE07C00B50709ECB5AA
:1012D0000605E4A3F0800690020CE004F01221352C
:1012E000E4900361F0900361E0FFC39408503190F3
:1012F000020CE075F010A4241FF582E5F03402F52D
:1013000083E5822FF582E43583F583E0FBEF75F00A
:1013100008A4FFE4FD121A5C900361E004F080C5AC
:1013200090020CE075F010A42427F582E5F0340259
:10133000F583E0FCA3E0FDA3E0FEA3E0FF9002073D
:1013400012114E121FD990020312115A0000000010
:10135000900207E0FCA3E0FDA3E0FEA3E0FF122360
:011360000F7D
:011361002269
:0514FC0090035FEFF01A
:1015010090020312115A00000000122135E49003E9
:1015110060F0900360E0FFC39408503190035FE0F6
:1015210075F010A4241FF582E5F03402F583E582FD
:101531002FF582E43583F583E0FBEF75F008A4FF16
:10154100E4FD121A5C900360E004F080C5121FD91B
:1015510090035FE075F010A42427F582E5F03402D2
:10156100F583E0FCA3E0FDA3E0FEA3E0FF9002070A
:1015710012114E90035FE075F010A4242BF582E563
:10158100F03402F583E0FCA3E0FDA3E0FEA3E0FF5D
:10159100900203E0F8A3E0F9A3E0FAA3E0FBD31281
:1015A10011175064900207E0FCA3E0FDA3E0FEA345
:1015B100E0FF12230F900201E0FEA3E0AA06F97BEF
:1015C10001121D95900207E0FCA3E0FDA3E0FEA33C
:1015D100E02401FFE43EFEE43DFDE43CFC90020713
:1015E10012114E900203E0FCA3E0FDA3E0FEA3E094
:1015F1002401FFE43EFEE43DFDE43CFC90020312C5
:10160100114E1211B0021574900207E0FCA3E0FD27
:10161100A3E0FEA3E0FF12230F900201E0FEA3E08E
:0B162100AA06F97B01121D95021E773E
:101362001222BA7F017E001222867BFF7A18793719
:10137200121E0D1219AE1221357BFF7A1879461210
:101382001E0D7F017E001222867BFF7A187955E4BA
:10139200FDFF121F857BFF7A187960121E0D9003E4
:1013A200B87401F07F647E00122286120D53900001
:1013B20000E0B402087BFF7A18796F800D9000007C
:1013C200E0B4030B7BFF7A187973121E0D80177B32
:1013D200FF7A187979121E0D7BFF7A18797EE4FD67
:1013E200FF121F8580FEE49003B8F07BFF7A187924
:1013F2008B121E0D120ADB7BFF7A187999121E0DD1
:101402007BFF7A1879A7121E0D1222A0121FD97B18
:10141200FF7A1879B3121E0D7F027E007D007C00D8
:101422001206B37BFF7A1879BE121E0D90020BE0F2
:10143200FFE4FCFDFE1223227BFF7A1879D2E4FD41
:10144200FF121F8590020BE0FBE4FD7F281221743E
:101452007BFF7A1879D8E4FD7F30121F857FFA7EF0
:10146200001222867FFA7E001222867FFA7E001206
:1014720022867FFA7E0012228690020BE070111201
:1014820021357BFF7A1879DEE4FDFF121F8580FE8D
:101492007BFF7A1879E6121E0D7F0A7E00122286E1
:1014A2009003B87401F0C294D2937F031220B5E482
:1014B200FF1220B512202DE4FCFDFE122322122081
:1014C2002DE4FCFDFE122322D29420950B7BFF7AA1
:1014D2001879F2121E0D80F2E49003B8F090020C1B
:1014E200F090020BE0FEA3E0FFC39E500B1214FC2F
:0A14F20090020CE004F080E980FE97
:1022E900434D4438BBD8D3A6CEAA00CEAA53443214
:0322F9002E300084
:101AFF00E0FCA3E0FDA3E0FEA3E0FF90037D121145
:091B0F004E90038174FFF07F1178
:101B1800EF4440FF1220B590037DE0FCA3E0FDA355
:101B2800E0FEA3E0FF78181211281220B590037D7B
:101B3800E0FCA3E0FDA3E0FEA3E0FF78101211286B
:101B4800E41220B590037DE0FCA3E0FDA3E0FEA332
:101B5800E0FF7808121128E41220B590037DA3A3B2
:101B6800A3E0FF1220B5900381E0FF1220B5900397
:101B780082741EF012202D900382E014F0E07002AF
:061B8800FF22EFF460EE05
:011B8E002234
:100D5300E4900360F0D2B5D2B6D2B4D2B390035FBD
:100D6300F07FFF12237890035FE004F0E0C3940A5E
:100D730040EFC2B590035F741EF07FFF1220B5C22F
:100D8300B690037D12115A00000000900381749500
:100D9300F0E4FF121B18900360EFF090035FE01480
:100DA300F0E07002FF22900360E0FFE4FCFDFE121E
:100DB3002322900360E0B401C8D2B67FFF1220B5AE
:100DC300C2B690037D12115A000001AA90038174E8
:100DD30087F07F08121B18900360EFF012202D128A
:100DE300202D12202DD2B67BFF7A2279E9121E0D17
:100DF300900360E0FFE4FCFDFE122322900360E019
:100E030064016003020EAF7BFF7A2279F4121E0D98
:100E130090035F741EF0C2B690037D12115A000056
:100E2300000090038174FFF07F37121B1890037D3D
:100E330012115A0000000090038174FFF07F291201
:100E43001B18900360EFF0D2B690035FE014F0E05C
:100E53007002FF22900360E070BC7FFF1220B5C2D6
:100E6300B690037D12115A0000000090038174FFB5
:100E7300F07F3A121B18EF701112202D900360EFD0
:100E8300F012202D12202D12202DD2B6900360E0F7
:100E9300FFE4FCFDFE122322900360E030E608909D
:100EA30000007401F08005E4900000F0900360E01E
:100EB30064056003020F877FFF1220B5C2B690035B
:100EC3005F741EF090037D12115A0000000090031E
:100ED3008174FFF07F37121B1890037D12115A00A3
:100EE30000000090038174FFF07F29121B18900308
:100EF30060EFF0D3940150429000007402F090032D
:100F030060E030E03190037D12115A000000009040
:100F1300038174FFF07F37121B1890037D12115A5F
:100F23000000000090038174FFF07F29121B1890CA
:100F33000360EFF080C8D2B6804390035F741EF065
:100F430090035FE014F090037D12115A000000003B
:100F530090038174FFF07F01121B18900360EFF080
:100F630090035FE07002FF22900360E0FF70D1EF17
:100F730090000070057403F080037404F0D2B67F10
:100F8300FF1220B590037D12115A00000200900356
:100F93008174FFF07F10121B18EF6009900000743A
:070FA30004F07F00227F0132
:010FAA002224
:0A237800C2B5C2B61220B5D2B622DB
:0B236000E4FFC2B5C2B612202DD2B6B9
:01236B00224F
:0618F70090037512114E72
:1018FD0090037B74FFF0FF1220B5C2B6900000E09C
:10190D0064016019900375E0FCA3E0FDA3E0FEA364
:10191D00E0FF780912113B90037512114E90037977
:10192D00E4F0A3741EF0900375121AFF90037BEF81
:10193D00F090037BE064FE602112236090037BEF47
:10194D00F090037AE024FFF0900379E034FFF0E0AB
:10195D007002A3E070DBFBFAF922E4900379F0A3A7
:10196D00F0122360900379E0FCA3E02401F582746A
:10197D00003CF583EFF090037AE004F070069003DD
:10198D0079E004F0C3900379E0940240D41223600F
:10199D00122360D2B67FFF1220B57B017A00790148
:0119AD002217
:061ED8009003A512114E5B
:101EDE009003AB74FFF0FF1220B5C2B6900000E085
:101EEE00640160199003A5E0FCA3E0FDA3E0FEA34E
:101EFE00E0FF780912113B9003A512114E9003A535
:101F0E00121AFF9003A9E4F0A3741EF0E4A3F0905C
:101F1E0003ABE064FE600A1223609003ABEFF08027
:011F2E00EEC4
:011F2F00228F
:092245004103B8004203B6019008
:0520B500900383EFF031
:1020BA00E4A3F0C2B59003B8E060031222FC9003D7
:1020CA0083E0C4131313540124FF92B4D2B59003CE
:1020DA00B8E060031222FC900383E025E0F0A3E05D
:0A20EA0004F0E0C3940840CBC2B537
:0120F40022C9
:10202D00E4900384F0C2B5900383F0900384E0251F
:10203D00E0F0D2B59003B8E060031222FCA2B3E445
:10204D0033FF900384E04FF0C2B59003B8E0600316
:10205D001222FC900383E004F0E0C3940840CC907E
:04206D000384E0FF09
:01207100224C
:10228600EF4E60157D087C07ED1DAA0470011C4AFF
:0922960070F6EF1F70EA1E80E7EC
:01229F00221C
:0822FC009003B6E0FEA3E0FF31
:0B230400EF1FAC0670011E4C70F622AB
:101CA1004442520044312E736563746F725F6E75E6
:101CB1006D0044312E726576657273655F7365637D
:101CC100746F725F6E756D0044312E6661745F735F
:101CD1006563746F725F6E756D0044312E726F6F44
:101CE100745F636C75737465720044312E66617440
:101CF100315F616464720044312E726F6F745F6191
:101D010064647200CBF9D5D2B5D8D6B700D5D2B5B7
:0B1D1100BDD2F4C0D600B4D8CEAA00AA
:100ADB007F007E007D007C001218F7AE02AF019004
:100AEB000201EEF0A3EFF0F5828E83E064EB70343D
:100AFB00900201E0FEA3E0FFF5828E83A3E0B458E1
:100B0B00238F828E83A3A3E0B49019900201A3E0FC
:100B1B00F5828E83A3A3A3E0B44D09E490020EF0FB
:100B2B00A3F08029900201E0FCA3E0FD24C7F5822D
:100B3B00EC3401F583E0FEED24C6F582EC3401F5CF
:100B4B0083E0FDEDFF90020EEEF0A3EFF07BFF7A5A
:100B5B001C79A1121E0D90020EE0FEA3E0FFE4FC37
:100B6B00FD12232290020EE0FEA3E0FFE4FCFD1237
:100B7B0018F7AF01900201EAF0A3EFF0900201E049
:100B8B00FCA3E0FD240FF582E43CF583E0FEED24AD
:100B9B000EF582E43CF583E0FDEDFF900210EEF0E4
:100BAB00A3EFF0900201E0FEA3E0FF240DF582E439
:100BBB003EF583E0900212F0EF2426F582E43EF539
:100BCB0083E07E007810C333CE33CED8F9FDAC066C
:100BDB00900201E0FAA3E0FB2427F582E43AF583C7
:100BEB00E07E007818C333CE33CED8F9FFEE4CFC41
:100BFB00EF4DFDEB2425F582E43AF583E04CFEED59
:100C0B00FF900201E0FAA3E0FB2424F582E43AF51D
:100C1B0083E0FDEF4DFFE4FCFD90021512114EEB4E
:100C2B00242DF582E43AF583E0FE900201E0FCA36B
:100C3B00E0242CF582E43CF583E0FDEDFF900219F6
:100C4B00EEF0A3EFF0900210E0FEA3E0FF90020F96
:100C5B00E02FFF90020EE03E900213F0A3EFF0E4C2
:100C6B007F02FEFDFCA3E0F8A3E0F9A3E0FAA3E00A
:100C7B00FB120FFAA804A905AA06AB07900213E012
:100C8B00FEA3E0FFE4FCFDEB2FFFEA3EFEED39FD9A
:100C9B00EC38FCA804A905AA06AB0790021AE024BD
:100CAB00FEFFEF25E0FEE4FCFD2BFFEA3EFEED39F7
:100CBB00FDEC38FC90021B12114E7BFF7A1C79A5C0
:100CCB00121E0D900212E0FFE4FCFDFE1223227BAC
:100CDB00FF7A1C79B3121E0D900210E0FEA3E0FF09
:100CEB00E4FCFD1223227BFF7A1C79C9121E0D90A6
:100CFB000215E0FCA3E0FDA3E0FEA3E0FF1223221C
:100D0B007BFF7A1C79DB121E0D900219E0FEA3E02B
:100D1B00FFE4FCFD1223227BFF7A1C79EB121E0DE4
:100D2B00900213E0FEA3E0FFE4FCFD1223227BFF05
:100D3B007A1C79F8121E0D90021BE0FCA3E0FDA3B8
:080D4B00E0FEA3E0FF022322F9
:10224F0090021BE0FCA3E0FDA3E0FEA3E0FF121849
:0C225F00F7AF01900201EAF0A3EFF022BB
:1021AE0090021BE0F8A3E0F9A3E0FAA3E0FBC3EF73
:1021BE009BFFEE9AFEED99FDEC98FCC00790021283
:1021CE00E0FBE4FAF9F8D007121085EF2402FFE4E1
:0921DE003EFEE43DFDE43CFC2260
:0B20F500E0FCA3E0FDA3E0FEA3E0FF81
:10210000EF24FEFBEE34FFFAED34FFF9EC34FFF878
:10211000900212E0FFE4FCFDFE120FFA90021BE0B9
:10212000F8A3E0F9A3E0FAA3E02FFFEA3EFEE93DC1
:05213000FDE83CFC226B
:0B162C00E0FCA3E0FDA3E0FEA3E0FF54
:0616370090036C12114E3D
:10163D0090037112115A00000000E47F04FEFDFCBE
:10164D0090036CE0F8A3E0F9A3E0FAA3E0FB120F1E
:10165D00FAE4FB7A02F9F8121085A804A905AA0686
:10166D00AB07900213E0FEA3E0FFE4FCFDEB2FFFC0
:10167D00EA3EFEED39FDEC38FC1218F7AF01900291
:10168D0001EAF0A3EFF0E4900370F0900371E0FC39
:10169D00A3E0FDA3E0FEA3E0FF780812113B900349
:1016AD007112114E900371E0F8A3E0F9A3E0FAA3D3
:1016BD00E0FBC000C001C002C003E47F04FEFDFCDE
:1016CD0090036CE0F8A3E0F9A3E0FAA3E0FB120F9E
:1016DD00FAEE5401FEEF2404FFE43EFE900370E0A9
:1016ED00FDC3EF9DFFEE9400FE900201E0FCA3E030
:1016FD002FF582EC3EF583E0FFD003D002D001D070
:10170D0000EB4FFFEAFEE9FDE8FC90037112114E6C
:10171D00900370E004F0E0640560030216989003F6
:0C172D0071E0FCA3E0FDA3E0FEA3E0FFE0
:01173900228D
:0606B30090035F12114EDE
:1006B90090035F1220F590036812114E7BFF7A1D9B
:1006C9007905121E0D900368E0FCA3E0FDA3E0FE8E
:1006D900A3E0FF122322900368E0FCA3E0FDA3E05E
:1006E900FEA3E0FF1218F7AF01900201EAF0A3EFB1
:1006F900F0E4900363F0900363E0FEC394104003B9
:10070900020A9D90020BE0B413037F0122900201BB
:10071900E0FCA3E0FDF5828C8375F020EE12118BCD
:10072900E064E57003020A94900363E0F975F02030
:10073900A4FFAEF0240BFBE43EFAED2BF582EC3A74
:10074900F583E0640F7003020A94EF2408FFE43E86
:10075900FE900201A3E02FF582EC3EF583E0644DA3
:100769007038E975F020A42409FFE435F0FEED2F77
:10077900F582EC3EF583E0B45020900363E075F018
:1007890020A4240AFFE435F0FE900201A3E02FF52E
:1007990082EC3EF583E064336066900363E0F975AB
:1007A900F020A42408FFE435F0FE900201E0FCA348
:1007B900E0FD2FF582EC3EF583E064576003020A01
:1007C90094E975F020A42409FFE435F0FEED2FF536
:1007D90082EC3EF583E064416003020A949003636E
:1007E900E075F020A4240AFFE435F0FE900201A38D
:1007F900E02FF582EC3EF583E064566003020A942B
:100809007BFF7A1D790E121E0D90020BE075F01018
:10081900A42427F582E5F03402F58312115A000069
:100829000000E4FD900363E075F020A4FFED7A0079
:100839002FFFEA35F0FE900201E0FAA3E02FF582DE
:10084900EA3EF583E0FF90020BE075F010A4241F47
:10085900F582E5F03402F583E5822DF582E43583EE
:10086900F583EFF00DEDB408BB900363E075F0205C
:10087900A42414FFE435F0FE900201E0FCA3E02F6C
:10088900F582EC3EF583E0FFE4FCFDFE78101211E1
:100899003BC004C005C006C007900363E075F020A3
:1008A900A42415FFE435F0FE900201E0FCA3E02F3B
:1008B900F582EC3EF583E0FFE4FCFDFE78181211A9
:1008C9003BD003D002D001D000EF4BFFEE4AFEED42
:1008D90049FDEC48FCC004C005C006C0079003638D
:1008E900E075F020A4241BFFE435F0FE900201E03E
:1008F900FCA3E02FF582EC3EF583E0FFE4FCFDFE6E
:10090900780812113BD003D002D001D000EF4BFF81
:10091900EE4AFEED49FDEC48FCA804A905AA06AB80
:1009290007900363E075F020A4241AFFE435F0FE74
:10093900900201E0FCA3E02FF582EC3EF583E0FF95
:10094900EB4FFFEAFEE9FDE8FC90020BE075F010C1
:10095900A42427F582E5F03402F58312114E7BFFBA
:100969007A1D7917121E0D90020BE075F010A42460
:1009790027F582E5F03402F583E0FCA3E0FDA3E06E
:10098900FEA3E0FF122322900363E075F020A42464
:100999001EFFE435F0FE900201E0FCA3E02FF58292
:1009A900EC3EF583E0FFE4FCFDFE781012113BC03C
:1009B90004C005C006C007900363E075F020A424B5
:1009C9001FFFE435F0FE900201E0FCA3E02FF58261
:1009D900EC3EF583E0FFE4FCFDFE781812113BD0F4
:1009E90003D002D001D000EF4BFFEE4AFEED49FDE6
:1009F900EC48FCC004C005C006C007900363E0755D
:100A0900F020A4241DFFE435F0FE900201E0FCA3D0
:100A1900E02FF582EC3EF583E0FFE4FCFDFE78086B
:100A290012113BD003D002D001D000EF4BFFEE4AA8
:100A3900FEED49FDEC48FCA804A905AA06AB079000
:100A49000363E075F020A4241CFFE435F0FE900256
:100A590001E0FCA3E02FF582EC3EF583E0FFEB4FCC
:100A6900FFEAFEE9FDE8FCE4FB7A02F9F8121085D9
:100A790090020BE075F010A4242BF582E5F0340206
:100A8900F58312114E90020BE004F0900363E00429
:100A9900F00206FF90035F12162C90036412114EA8
:100AA90074FFFFFEFD7C0F900364E0F8A3E0F9A357
:100AB900E0FAA3E0FBC312111770037F0122900330
:100AC90064E0FCA3E0FDA3E0FEA3E0FF1206B37F10
:010AD900001C
:010ADA0022F9
:10230F001221001218F7AF01900201EAF0A3EFF0CB
:03231F007F012219
:061F300090039D12114E0A
:101F36009003A112115A0000000090039D12162C66
:101F46009003A112114E7FFF7EFF7D0F7C00900350
:101F5600A1E0F8A3E0F9A3E0FAA3E0FBC31211178E
:101F66007003FF80169003A11220F51218F7AF0137
:0E1F7600900201EAF0A3EFF0E47F01FEFDFC13
:011F8400223A
:1000030000000000000000000000000000000000ED
:10001300000000F800000000000000333000000082
:1000230000100C06100C0600000000000000000089
:1000330040C07840C0784000043F04043F040400FB
:10004300007088FC08300000001820FF211E00000B
:10005300F008F000E018000000211C031E211E0020
:1000630000F00888700000001E21232419272110A6
:1000730010160E0000000000000000000000000049
:10008300000000E0180402000000000718204000F0
:1000930000020418E00000000040201807000000E0
:1000A300404080F0804040000202010F0102020044
:1000B300000000F0000000000101011F0101010028
:1000C300000000000000000080B07000000000008D
:1000D3000000000000000000000101010101010116
:1000E30000000000000000000030300000000000AD
:1000F3000000000080601804006018060100000082
:1001030000E010080810E000000F102020100F007E
:10011300001010F8000000000020203F2020000005
:10012300007008080888700000302824222130005D
:1001330000300888884830000018202020110E0065
:100143000000C02010F8000000070424243F24000E
:1001530000F80888880808000019212020110E00E3
:1001630000E0108888180000000F112020110E00F5
:1001730000380808C83808000000003F00000000ED
:100183000070880808887000001C222121221C00AE
:1001930000E010080810E0000000312222110F00D7
:1001A300000000C0C000000000000030300000006C
:1001B30000000080000000000000806000000000DC
:1001C30000008040201008000001020408102000F5
:1001D3004040404040404000040404040404040040
:1001E30000081020408000000020100804020100D5
:1001F300007048080808F0000000003036010000D5
:10020300C030C828E810E0000718272423140B0087
:100213000000C038E0000000203C23020227382001
:1002230008F8888888700000203F202020110E00E5
:10023300C0300808080838000718202020100800DC
:1002430008F808080810E000203F202020100F00C5
:1002530008F88888E8081000203F20202320180091
:1002630008F88888E8081000203F200003000000F9
:10027300C03008080838000007182020221E02009A
:1002830008F808000008F808203F210101213F2059
:10029300000808F8080800000020203F2020000084
:1002A30000000808F8080800C08080807F00000074
:1002B30008F888C028180800203F200126382000AD
:1002C30008F8080000000000203F20202020300014
:1002D30008F8F800F8F80800203F003F003F20002E
:1002E30008F830C00008F808203F200007183F0036
:1002F300E01008080810E0000F10202020100F0065
:1003030008F808080808F000203F21010101000057
:10031300E01008080810E0000F18242438504F009C
:1003230008F8888888887000203F2000030C30205C
:1003330000708808080838000038202121221C009A
:10034300180808F8080818000000203F20000000E3
:1003530008F808000008F808001F202020201F00CC
:100363000878880000C83808000007380E0100002C
:10037300F80800F80008F800033C0700073C0300F6
:10038300081868808068180820302C03032C30205C
:100393000838C800C83808000000203F20000000CB
:1003A30010080808C8380800203826212020180023
:1003B300000000FE020202000000007F40404000F7
:1003C300000C30C000000000000000010638C0002F
:1003D30000020202FE000000004040407F000000D7
:1003E30000000402020204000000000000000000FC
:1003F30000000000000000008080808080808080FA
:1004030000020204000000000000000000000000E1
:1004130000008080808000000019242222223F20D7
:1004230008F8008080000000003F112020110E001A
:100433000000008080800000000E112020201100A9
:10044300000000808088F800000E112020103F205B
:100453000000808080800000001F222222221300DF
:10046300008080F0888888180020203F202000002A
:100473000000808080808000006B949494936000DF
:1004830008F8008080800000203F210000203F20EA
:1004930000809898000000000020203F20200000EA
:1004A300000000809898000000C08080807F0000DA
:1004B30008F8000080808000203F24022D302000B7
:1004C300000808F8000000000020203F2020000062
:1004D3008080808080808000203F20003F20003F7C
:1004E3008080008080800000203F210000203F208A
:1004F3000000808080800000001F202020201F003B
:10050300808000808000000080FFA12020110E0069
:100513000000008080808000000E112020A0FF805A
:10052300808080008080800020203F212000010007
:10053300000080808080800000332424242419005C
:10054300008080E0808000000000001F2020000069
:100553008080000000808000001F202020103F20AA
:10056300808080000080808000010E30080601003A
:1005730080800080008080800F300C030C300F00DF
:1005830000808000808080000020312E0E3120000A
:10059300808080000080808080818E70180601003A
:1005A30000808080808080000021302C2221300058
:1005B30000000000807C020200000000003F404079
:1005C30000000000FF00000000000000FF0000002A
:1005D3000002027C800000000040403F0000000059
:1005E30000060101020204040000000000000000F4
:1005F300101010FF1010F00000F8080808F80000B1
:1006030000000000000000000000000000000000E7
:100613008040300F40807F00007F2020207F00003B
:1006230000000000000000000000000000000000C7
:10063300909494F49F9494941010FF1012D410008B
:1006430000000000000000000000000000000000A7
:1006530020262524FE141414804027182641F00078
:100663000000000000000000000000000000000087
:100673000000F010101010FF10101010F000000018
:100683000000000000000000000000000000000067
:1006930000000F04040404FF040404040F0000001A
:1006A3000000000000000000000000000000000047
:0621E700E0FFA3E004FD8F
:1021ED00900369EFF0ED24B0FF12236C900369E0CA
:1021FD0054F0C4540F4410FF12236C900369E05443
:07220D000F4401FF02236CE6
:0C236C00C291C2921220B5D292D29122EE
:0F226B00F583E5822FF582E43583F583E493FF55
:0C227A00D291C2921220B5D292D29122D1
:10213500E4900362F0900362E0FFC39408502FEF30
:1021450024B0FF12236CE4FF12236C7F1012236C62
:10215500E4900363F0E4FF12227A900363E004F055
:0E216500E0C3948040EF900362E004F080C776
:012173002249
:1019AE00D2907F647E00122286C2907F647E0012E7
:1019BE002286D2907FAE12236CE4FF12236C7F102E
:1019CE0012236C7F4012236C7F8112236C7FCF1207
:1019DE00236C7FA112236C7FC812236C7FA6122367
:1019EE006C7FA812236C7F3F12236C7FD312236C63
:1019FE00E4FF12236C7FD512236C7F8012236C7F41
:101A0E00D912236C7FF112236C7FDA12236C7F12B2
:101A1E0012236C7FDB12236C7F4012236C7F20120B
:101A2E00236C7F0212236C7F8D12236C7F14122382
:101A3E006C7FA412236C7F6712236C7FAF12236C12
:0E1A4E007FAF12236C122135E4FDFF0221ED63
:0F2334007F8D12236C7F1412236C7FAF02236CFA
:0F2343007F8D12236C7F1012236C7FAE02236CF0
:0B1A5C00900366EDF0900365EFF0FDD5
:101A6700E4900367F0A3F0EB24E0900367F0EDC385
:101A7700947F400AE4900365F0A3E02402F090030A
:101A870065E0FFA3E0FD1221EDE4900368F0900309
:101A970068E0FFC394085025900367E075F010A431
:101AA7002FF582E435F0F583E5822403F582E5839B
:101AB7003400122275900368E004F080D19003652A
:101AC7001221E7E4900368F0900368E0FFC39408ED
:101AD7005025900367E075F010A42FF582E435F0E8
:101AE700F583E582240BF582E58334001222759095
:071AF7000368E004F080D158
:011AFE0022C5
:101F850090035FEFF0A3EDF0A3EBF0A3EAF0A3E974
:011F9500F05B
:101F9600E4A3F0900361E0FBA3E0FAA3E0F9A3E079
:101FA600F582758300120FABFB602790035FE0FF9D
:101FB600A3E0FD121A5C90035FE02408F0E0D394DE
:101FC600784007E4F0A3E02402F0900364E004F014
:021FD60080C1C8
:011FD80022E6
:0D1C1B009003B3EDF0A3EBF09003B2EFF0F7
:101C2800E49003B5F0EFD3947F400AE49003B2F058
:101C3800A3E02402F09003B2E0FFA3E0FD1221ED3F
:101C4800E49003B5F09003B5E0FFC39410501A90E8
:101C580003B4E075F040A424F3F582E434051222BD
:101C68006B9003B5E004F080DC9003B21221E7E446
:101C78009003B5F09003B5E0FFC39410501A900399
:101C8800B4E075F040A42413F582E4340612226B04
:081C98009003B5E004F080DCCC
:011CA0002221
:1021740090035FEFF0A3EDF0A3EBF0900361E0FEBA
:10218400602790035FE0FFA3E0FDEE75F00A84E5AD
:10219400F02430FB121A5C90035FE02408F09003F3
:0A21A40061E075F00A84F080D22299
:0E2352007761697400B3F6CFD6B5C8B4000049
:10207200900362EFF0A3ECF0A3EDF0D2953095FD62
:10208200C2947F021220B5900362E0FF1220B59045
:102092000363E0FF1220B5900363A3E0540FFF1225
:1020A20020B5D29420950B7BFF7A237952121E0D14
:0320B20080F22297
:1022A000C2B77F0A7E001222867FFF1220B5D29429
:0A22B000D293D2B73095FD7F0122D2
:101FD900C2947D247C08E4FF1220727D007C987FE6
:101FE900031220727D817CBB7F051220727D557C96
:101FF900007F0212207274FFFDFC7F0B1220727F9A
:10200900017E00122286D2943095FDC293E4FF121C
:1020190020B5E4FF1220B5E4FF1220B5E4FF122039
:04202900B5D2932277
:0B1D9500900361EBF0A3EAF0A3E9F07B
:101DA000E4A3F0A3F0A3F0A3F0C3900364E09402D3
:101DB000505A3095F4C293D294E4900366F0A3F0A5
:101DC000900361E0FBA3E0FAA3E0F9A3E0FEA3E047
:101DD000F5828E83120FABFF1220B5900365E004ED
:101DE000F07006900364E004F0900367E004F07084
:101DF00006900366E004F0C3900367E0942090032C
:0C1E000066E0940040BAD293D294809D1A
:011E0C0022B3
:101E7700E4900361F0A3F0A3F0A3F0900361F0A353
:101E8700F020952FC293E4900363F0A3F0E4FF12D0
:101E970020B5900364E004F07006900363E004F05B
:101EA700C3900364E09420900363E0940040DED283
:101EB70093D294900362E004F07006900361E0040B
:101EC700F0C3900362E09440900361E0940040B156
:011ED70022E8
:1022140090020DE0FBFFE4FCFDFEEB2408F9F8124C
:0E222400113BAD07AC067F0B122072C2932255
:101D1C00E49003ACF0A3F0A3F0A304F0C293D2942C
:101D2C009003AEE0FEA3E0FFC39003ADE09F9003F1
:101D3C00ACE09E504F309541E49003B0F0A3F0C35B
:101D4C009003B1E094209003B0E0940050D2900343
:101D5C00ACA3E090235F93FF1220B59003ADE00499
:101D6C00F070069003ACE004F09003B1E004F07066
:101D7C00CE9003B0E004F080C67BFF7A2379571233
:081D8C001E0D809CD293D2943D
:011D9400222C
:0B1E0D00900380EBF0A3EAF0A3E9F0E3
:101E1800C2ACE4A3F0A3F0900380E0FBA3E0FAA334
:101E2800E0F91222D4900383E0FCA3E0FDC39FEC09
:101E38009E5029900380E0FBA3E0FAA3E0F98D828D
:101E48008C83120FABF5993099FDC299900384E009
:101E580004F070C3900383E004F080BB75990D30E3
:0E1E680099FDC29975990A3099FDC299D2ACC4
:011E76002249
:10173A0090038012114E900384EBF0A3EAF0A3E920
:01174A00F0AE
:10174B00E490039BF0A3F0900380E0FCA3E0FDA3E7
:10175B00E0FEA3E0FFEC4D4E4F6048E47B0AFAF944
:10176B00F8900380A3A3A3E0121085EB2430FF9025
:10177B00039BE02487F582E43403F583EFF09003B9
:10178B009BE004F0900380E0FCA3E0FDA3E0FEA34C
:10179B00E0FFE47B0AFAF9F812108590038012112E
:1017AB004E80A490039BE0A3F0E490039BF0900386
:1017BB009CE0FF90039BE0FEC39F5036EEFDC3EF12
:1017CB009DFFE49400FE74862FF58274033EF5832F
:1017DB00E0FF900384E0FBA3E0FAA3E0F990039B06
:1017EB00E0F582758300EF120FD890039BE004F0B5
:1017FB0080BC90039BE0701C900384E0FBA3E0FA99
:10180B00A3E0F990039BE0FF04F08F8275830074D3
:10181B0030120FD8900384E0FBA3E0FAA3E0F99019
:0C182B00039BE0F582758300E4020FD8F7
:102322007B017A03796C12173A7B017A03796C028A
:022332001E0D7E
:1022BA00759850758920758780758DF3758BF3D263
:0A22CA00ACD2AFC299C298D28E22A6
:03000000021B8F51
:0C1B8F00787FE4F6D8FD758107021BD6B4
:100FAB00BB010CE58229F582E5833AF583E02250FB
:100FBB0006E92582F8E622BBFE06E92582F8E22245
:0D0FCB00E58229F582E5833AF583E493225F
:100FD800F8BB010DE58229F582E5833AF583E8F04F
:100FE800225006E92582C8F622BBFE05E92582C8FB
:020FF800F222E3
:100FFA00E88FF0A4CC8BF0A42CFCE98EF0A42CFC96
:10100A008AF0EDA42CFCEA8EF0A4CDA8F08BF0A413
:10101A002DCC3825F0FDE98FF0A42CCD35F0FCEB72
:10102A008EF0A4FEA9F0EB8FF0A4CFC5F02ECD3937
:0F103A00FEE43CFCEAA42DCE35F0FDE43CFC22A4
:1010490075F008758200EF2FFFEE33FECD33CDCC5E
:1010590033CCC58233C5829BED9AEC99E5829840E1
:101069000CF582EE9BFEED9AFDEC99FC0FD5F0D6BE
:10107900E4CEFBE4CDFAE4CCF9A88222B800C1B9E8
:101089000059BA002DEC8BF084CFCECDFCE5F0CB26
:10109900F97818EF2FFFEE33FEED33FDEC33FCEB5F
:1010A90033FB10D703994004EB99FB0FD8E5E4F91A
:1010B900FA227818EF2FFFEE33FEED33FDEC33FC07
:1010C900C933C910D7059BE99A4007EC9BFCE99AFB
:1010D900F90FD8E0E4C9FAE4CCFB2275F010EF2F40
:1010E900FFEE33FEED33FDCC33CCC833C810D70740
:1010F9009BEC9AE899400AED9BFDEC9AFCE899F87B
:0E1109000FD5F0DAE4CDFBE4CCFAE4C8F9220D
:10111700EB9FF5F0EA9E42F0E99D42F0E89C45F02E
:0111270022A5
:10112800E8600FECC313FCED13FDEE13FEEF13FFA5
:03113800D8F122C9
:10113B00E8600FEFC333FFEE33FEED33FDEC33FC12
:03114B00D8F122B6
:0C114E00ECF0A3EDF0A3EEF0A3EFF02214
:10115A00A8828583F0D083D0821211711211711284
:10116A001171121171E473E493A3C583C5F0C583A9
:10117A00C8C582C8F0A3C583C5F0C583C8C582C8DF
:01118A002242
:0C118B00A42582F582E5F03583F583226F
:1022D400E4FFFE121197600C0FEF70010E09E97014
:0522E400F20A80EF2268
:101B9B00021362E493A3F8E493A34003F68001F2EB
:101BAB0008DFF48029E493A3F85407240CC8C3334B
:101BBB00C4540F4420C8834004F456800146F6DF1A
:101BCB00E4800B0102040810204080902232E47E56
:101BDB00019360BCA3FF543F30E509541FFEE4930F
:101BEB00A360010ECF54C025E060A840B8E493A3D6
:101BFB00FAE493A3F8E493A3C8C582C8CAC583CA01
:101C0B00F0A3C8C582C8CAC583CADFE9DEE780BEB8
:01224E00008F
:10119700BB010689828A83E0225002E722BBFE0256
:0911A700E32289828A83E4932289
:00000001FF
